{
  "contractName": "Metarent",
  "abi": [
    {
      "inputs": [
        {
          "internalType": "address",
          "name": "_admin",
          "type": "address"
        }
      ],
      "stateMutability": "nonpayable",
      "type": "constructor"
    },
    {
      "inputs": [
        {
          "internalType": "address",
          "name": "",
          "type": "address"
        },
        {
          "internalType": "address",
          "name": "",
          "type": "address"
        },
        {
          "internalType": "uint256",
          "name": "",
          "type": "uint256"
        },
        {
          "internalType": "bytes",
          "name": "",
          "type": "bytes"
        }
      ],
      "name": "onERC721Received",
      "outputs": [
        {
          "internalType": "bytes4",
          "name": "",
          "type": "bytes4"
        }
      ],
      "stateMutability": "nonpayable",
      "type": "function"
    },
    {
      "inputs": [
        {
          "internalType": "address",
          "name": "nftToken",
          "type": "address"
        },
        {
          "internalType": "uint256",
          "name": "nftTokenId",
          "type": "uint256"
        },
        {
          "internalType": "uint256",
          "name": "maxRentDuration",
          "type": "uint256"
        },
        {
          "internalType": "uint256",
          "name": "dailyRentPrice",
          "type": "uint256"
        },
        {
          "internalType": "uint256",
          "name": "nftPrice",
          "type": "uint256"
        }
      ],
      "name": "setLending",
      "outputs": [],
      "stateMutability": "payable",
      "type": "function"
    },
    {
      "inputs": [
        {
          "internalType": "address",
          "name": "nftToken",
          "type": "address"
        },
        {
          "internalType": "uint256",
          "name": "nftTokenId",
          "type": "uint256"
        }
      ],
      "name": "removeLending",
      "outputs": [],
      "stateMutability": "pure",
      "type": "function"
    },
    {
      "inputs": [],
      "name": "getLending",
      "outputs": [
        {
          "components": [
            {
              "internalType": "address",
              "name": "lender",
              "type": "address"
            },
            {
              "internalType": "address",
              "name": "nftToken",
              "type": "address"
            },
            {
              "internalType": "uint256",
              "name": "nftTokenId",
              "type": "uint256"
            },
            {
              "internalType": "uint256",
              "name": "maxRentDuration",
              "type": "uint256"
            },
            {
              "internalType": "uint256",
              "name": "dailyRentPrice",
              "type": "uint256"
            },
            {
              "internalType": "uint256",
              "name": "nftPrice",
              "type": "uint256"
            },
            {
              "internalType": "bool",
              "name": "rentable",
              "type": "bool"
            }
          ],
          "internalType": "struct Metarent.Lending[]",
          "name": "filteredLendings",
          "type": "tuple[]"
        }
      ],
      "stateMutability": "view",
      "type": "function"
    },
    {
      "inputs": [
        {
          "internalType": "address",
          "name": "nftToken",
          "type": "address"
        },
        {
          "internalType": "uint256",
          "name": "nftTokenId",
          "type": "uint256"
        },
        {
          "internalType": "uint256",
          "name": "rentDuration",
          "type": "uint256"
        }
      ],
      "name": "rent",
      "outputs": [],
      "stateMutability": "payable",
      "type": "function"
    },
    {
      "inputs": [
        {
          "internalType": "address",
          "name": "user",
          "type": "address"
        }
      ],
      "name": "getRenting",
      "outputs": [
        {
          "components": [
            {
              "internalType": "address",
              "name": "renter",
              "type": "address"
            },
            {
              "internalType": "address",
              "name": "lender",
              "type": "address"
            },
            {
              "internalType": "address",
              "name": "nftToken",
              "type": "address"
            },
            {
              "internalType": "uint256",
              "name": "nftTokenId",
              "type": "uint256"
            },
            {
              "internalType": "uint256",
              "name": "dailyRentPrice",
              "type": "uint256"
            },
            {
              "internalType": "uint256",
              "name": "nftPrice",
              "type": "uint256"
            },
            {
              "internalType": "uint256",
              "name": "rentDuration",
              "type": "uint256"
            },
            {
              "internalType": "uint256",
              "name": "rentedAt",
              "type": "uint256"
            },
            {
              "internalType": "bool",
              "name": "isReturned",
              "type": "bool"
            }
          ],
          "internalType": "struct Metarent.Renting[]",
          "name": "filteredRentings",
          "type": "tuple[]"
        }
      ],
      "stateMutability": "view",
      "type": "function"
    },
    {
      "inputs": [
        {
          "internalType": "address",
          "name": "nftToken",
          "type": "address"
        },
        {
          "internalType": "uint256",
          "name": "nftTokenId",
          "type": "uint256"
        }
      ],
      "name": "returnRent",
      "outputs": [],
      "stateMutability": "nonpayable",
      "type": "function"
    },
    {
      "inputs": [
        {
          "internalType": "uint256",
          "name": "_feePermille",
          "type": "uint256"
        }
      ],
      "name": "setPermille",
      "outputs": [],
      "stateMutability": "nonpayable",
      "type": "function"
    },
    {
      "inputs": [],
      "name": "getBalance",
      "outputs": [
        {
          "internalType": "uint256",
          "name": "",
          "type": "uint256"
        }
      ],
      "stateMutability": "view",
      "type": "function"
    }
  ],
  "bytecode": "0x60806040523480156200001157600080fd5b506040516200259e3803806200259e8339818101604052810190620000379190620000e8565b806000806101000a81548173ffffffffffffffffffffffffffffffffffffffff021916908373ffffffffffffffffffffffffffffffffffffffff160217905550506200011a565b600080fd5b600073ffffffffffffffffffffffffffffffffffffffff82169050919050565b6000620000b08262000083565b9050919050565b620000c281620000a3565b8114620000ce57600080fd5b50565b600081519050620000e281620000b7565b92915050565b6000602082840312156200010157620001006200007e565b5b60006200011184828501620000d1565b91505092915050565b612474806200012a6000396000f3fe6080604052600436106100865760003560e01c80634dc32a18116100595780634dc32a181461015957806369acea5f146101755780637cee00fa146101a05780638f1058bd146101bc578063e2d14f2b146101e557610086565b806312065fe01461008b578063150b7a02146100b65780633567f456146100f357806338cacf2a14610130575b600080fd5b34801561009757600080fd5b506100a061020e565b6040516100ad91906117cf565b60405180910390f35b3480156100c257600080fd5b506100dd60048036038101906100d891906119ce565b610216565b6040516100ea9190611a8c565b60405180910390f35b3480156100ff57600080fd5b5061011a60048036038101906101159190611aa7565b61022a565b6040516101279190611c74565b60405180910390f35b34801561013c57600080fd5b5061015760048036038101906101529190611c96565b610585565b005b610173600480360381019061016e9190611cc3565b61061d565b005b34801561018157600080fd5b5061018a610d3d565b6040516101979190611e53565b60405180910390f35b6101ba60048036038101906101b59190611e75565b610ffb565b005b3480156101c857600080fd5b506101e360048036038101906101de9190611ef0565b61127b565b005b3480156101f157600080fd5b5061020c60048036038101906102079190611ef0565b611676565b005b600047905090565b600063150b7a0260e01b9050949350505050565b6060600060055467ffffffffffffffff81111561024a576102496118a3565b5b60405190808252806020026020018201604052801561028357816020015b6102706116bb565b8152602001906001900390816102685790505b509050600080600090505b6005548110156104cf578473ffffffffffffffffffffffffffffffffffffffff16600482815481106102c3576102c2611f30565b5b906000526020600020906009020160000160009054906101000a900473ffffffffffffffffffffffffffffffffffffffff1673ffffffffffffffffffffffffffffffffffffffff1614156104bc576004818154811061032557610324611f30565b5b9060005260206000209060090201604051806101200160405290816000820160009054906101000a900473ffffffffffffffffffffffffffffffffffffffff1673ffffffffffffffffffffffffffffffffffffffff1673ffffffffffffffffffffffffffffffffffffffff1681526020016001820160009054906101000a900473ffffffffffffffffffffffffffffffffffffffff1673ffffffffffffffffffffffffffffffffffffffff1673ffffffffffffffffffffffffffffffffffffffff1681526020016002820160009054906101000a900473ffffffffffffffffffffffffffffffffffffffff1673ffffffffffffffffffffffffffffffffffffffff1673ffffffffffffffffffffffffffffffffffffffff16815260200160038201548152602001600482015481526020016005820154815260200160068201548152602001600782015481526020016008820160009054906101000a900460ff1615151515815250508383815181106104a1576104a0611f30565b5b60200260200101819052506001826104b99190611f8e565b91505b80806104c790611fe4565b91505061028e565b508067ffffffffffffffff8111156104ea576104e96118a3565b5b60405190808252806020026020018201604052801561052357816020015b6105106116bb565b8152602001906001900390816105085790505b50925060005b8181101561057d5782818151811061054457610543611f30565b5b602002602001015184828151811061055f5761055e611f30565b5b6020026020010181905250808061057590611fe4565b915050610529565b505050919050565b60008054906101000a900473ffffffffffffffffffffffffffffffffffffffff1673ffffffffffffffffffffffffffffffffffffffff163373ffffffffffffffffffffffffffffffffffffffff1614610613576040517f08c379a000000000000000000000000000000000000000000000000000000000815260040161060a9061208a565b60405180910390fd5b8060018190555050565b61062561174b565b6000805b6002805490508110156108475760006002828154811061064c5761064b611f30565b5b906000526020600020906007020190508673ffffffffffffffffffffffffffffffffffffffff168160010160009054906101000a900473ffffffffffffffffffffffffffffffffffffffff1673ffffffffffffffffffffffffffffffffffffffff161480156106be5750858160020154145b1561083357806040518060e00160405290816000820160009054906101000a900473ffffffffffffffffffffffffffffffffffffffff1673ffffffffffffffffffffffffffffffffffffffff1673ffffffffffffffffffffffffffffffffffffffff1681526020016001820160009054906101000a900473ffffffffffffffffffffffffffffffffffffffff1673ffffffffffffffffffffffffffffffffffffffff1673ffffffffffffffffffffffffffffffffffffffff168152602001600282015481526020016003820154815260200160048201548152602001600582015481526020016006820160009054906101000a900460ff1615151515815250509350600192508060060160009054906101000a900460ff16610815576040517f08c379a000000000000000000000000000000000000000000000000000000000815260040161080c906120f6565b60405180910390fd5b60008160060160006101000a81548160ff0219169083151502179055505b50808061083f90611fe4565b915050610629565b5080610888576040517f08c379a000000000000000000000000000000000000000000000000000000000815260040161087f90612162565b60405180910390fd5b60006040518061012001604052803373ffffffffffffffffffffffffffffffffffffffff168152602001846000015173ffffffffffffffffffffffffffffffffffffffff1681526020018773ffffffffffffffffffffffffffffffffffffffff168152602001868152602001846080015181526020018460a00151815260200185815260200142815260200160001515815250905060005b600480549050811015610b4b5760006004828154811061094357610942611f30565b5b9060005260206000209060090201604051806101200160405290816000820160009054906101000a900473ffffffffffffffffffffffffffffffffffffffff1673ffffffffffffffffffffffffffffffffffffffff1673ffffffffffffffffffffffffffffffffffffffff1681526020016001820160009054906101000a900473ffffffffffffffffffffffffffffffffffffffff1673ffffffffffffffffffffffffffffffffffffffff1673ffffffffffffffffffffffffffffffffffffffff1681526020016002820160009054906101000a900473ffffffffffffffffffffffffffffffffffffffff1673ffffffffffffffffffffffffffffffffffffffff1673ffffffffffffffffffffffffffffffffffffffff16815260200160038201548152602001600482015481526020016005820154815260200160068201548152602001600782015481526020016008820160009054906101000a900460ff16151515158152505090508773ffffffffffffffffffffffffffffffffffffffff16816040015173ffffffffffffffffffffffffffffffffffffffff16148015610af05750868160600151145b15610b37576000610b36576040517f08c379a0000000000000000000000000000000000000000000000000000000008152600401610b2d906121ce565b60405180910390fd5b5b508080610b4390611fe4565b915050610920565b50600160056000828254610b5f9190611f8e565b92505081905550600481908060018154018082558091505060019003906000526020600020906009020160009091909190915060008201518160000160006101000a81548173ffffffffffffffffffffffffffffffffffffffff021916908373ffffffffffffffffffffffffffffffffffffffff16021790555060208201518160010160006101000a81548173ffffffffffffffffffffffffffffffffffffffff021916908373ffffffffffffffffffffffffffffffffffffffff16021790555060408201518160020160006101000a81548173ffffffffffffffffffffffffffffffffffffffff021916908373ffffffffffffffffffffffffffffffffffffffff160217905550606082015181600301556080820151816004015560a0820151816005015560c0820151816006015560e082015181600701556101008201518160080160006101000a81548160ff021916908315150217905550505060008690508073ffffffffffffffffffffffffffffffffffffffff166323b872dd856000015133896040518463ffffffff1660e01b8152600401610d02939291906121fd565b600060405180830381600087803b158015610d1c57600080fd5b505af1158015610d30573d6000803e3d6000fd5b5050505050505050505050565b6060600060035467ffffffffffffffff811115610d5d57610d5c6118a3565b5b604051908082528060200260200182016040528015610d9657816020015b610d8361174b565b815260200190600190039081610d7b5790505b509050600080600090505b600354811015610f47576001151560028281548110610dc357610dc2611f30565b5b906000526020600020906007020160060160009054906101000a900460ff1615151415610f345760028181548110610dfe57610dfd611f30565b5b90600052602060002090600702016040518060e00160405290816000820160009054906101000a900473ffffffffffffffffffffffffffffffffffffffff1673ffffffffffffffffffffffffffffffffffffffff1673ffffffffffffffffffffffffffffffffffffffff1681526020016001820160009054906101000a900473ffffffffffffffffffffffffffffffffffffffff1673ffffffffffffffffffffffffffffffffffffffff1673ffffffffffffffffffffffffffffffffffffffff168152602001600282015481526020016003820154815260200160048201548152602001600582015481526020016006820160009054906101000a900460ff161515151581525050838381518110610f1957610f18611f30565b5b6020026020010181905250600182610f319190611f8e565b91505b8080610f3f90611fe4565b915050610da1565b508067ffffffffffffffff811115610f6257610f616118a3565b5b604051908082528060200260200182016040528015610f9b57816020015b610f8861174b565b815260200190600190039081610f805790505b50925060005b81811015610ff557828181518110610fbc57610fbb611f30565b5b6020026020010151848281518110610fd757610fd6611f30565b5b60200260200101819052508080610fed90611fe4565b915050610fa1565b50505090565b60006040518060e001604052803373ffffffffffffffffffffffffffffffffffffffff1681526020018773ffffffffffffffffffffffffffffffffffffffff16815260200186815260200185815260200184815260200183815260200160011515815250905060005b6002805490508110156111545760006002828154811061108757611086611f30565b5b906000526020600020906007020190508773ffffffffffffffffffffffffffffffffffffffff168160010160009054906101000a900473ffffffffffffffffffffffffffffffffffffffff1673ffffffffffffffffffffffffffffffffffffffff161480156110f95750868160020154145b1561114057600061113f576040517f08c379a000000000000000000000000000000000000000000000000000000000815260040161113690612280565b60405180910390fd5b5b50808061114c90611fe4565b915050611064565b506001600360008282546111689190611f8e565b92505081905550600281908060018154018082558091505060019003906000526020600020906007020160009091909190915060008201518160000160006101000a81548173ffffffffffffffffffffffffffffffffffffffff021916908373ffffffffffffffffffffffffffffffffffffffff16021790555060208201518160010160006101000a81548173ffffffffffffffffffffffffffffffffffffffff021916908373ffffffffffffffffffffffffffffffffffffffff16021790555060408201518160020155606082015181600301556080820151816004015560a0820151816005015560c08201518160060160006101000a81548160ff0219169083151502179055505050505050505050565b6112836116bb565b6000805b60048054905081101561150d576000600482815481106112aa576112a9611f30565b5b906000526020600020906009020190508573ffffffffffffffffffffffffffffffffffffffff168160020160009054906101000a900473ffffffffffffffffffffffffffffffffffffffff1673ffffffffffffffffffffffffffffffffffffffff1614801561131c5750848160030154145b156114f95780604051806101200160405290816000820160009054906101000a900473ffffffffffffffffffffffffffffffffffffffff1673ffffffffffffffffffffffffffffffffffffffff1673ffffffffffffffffffffffffffffffffffffffff1681526020016001820160009054906101000a900473ffffffffffffffffffffffffffffffffffffffff1673ffffffffffffffffffffffffffffffffffffffff1673ffffffffffffffffffffffffffffffffffffffff1681526020016002820160009054906101000a900473ffffffffffffffffffffffffffffffffffffffff1673ffffffffffffffffffffffffffffffffffffffff1673ffffffffffffffffffffffffffffffffffffffff16815260200160038201548152602001600482015481526020016005820154815260200160068201548152602001600782015481526020016008820160009054906101000a900460ff161515151581525050935060019250600015158160080160009054906101000a900460ff161515146114db576040517f08c379a00000000000000000000000000000000000000000000000000000000081526004016114d2906122ec565b60405180910390fd5b60018160080160006101000a81548160ff0219169083151502179055505b50808061150590611fe4565b915050611287565b508061154e576040517f08c379a000000000000000000000000000000000000000000000000000000000815260040161154590612358565b60405180910390fd5b60008490508073ffffffffffffffffffffffffffffffffffffffff166323b872dd33856000015186606001516040518463ffffffff1660e01b8152600401611598939291906121fd565b600060405180830381600087803b1580156115b257600080fd5b505af11580156115c6573d6000803e3d6000fd5b505050503373ffffffffffffffffffffffffffffffffffffffff166108fc8460a001519081150290604051600060405180830381858888f19350505050158015611614573d6000803e3d6000fd5b503373ffffffffffffffffffffffffffffffffffffffff166108fc8460c0015185608001516116439190612378565b9081150290604051600060405180830381858888f1935050505015801561166e573d6000803e3d6000fd5b505050505050565b60006116b7576040517f08c379a00000000000000000000000000000000000000000000000000000000081526004016116ae9061241e565b60405180910390fd5b5050565b604051806101200160405280600073ffffffffffffffffffffffffffffffffffffffff168152602001600073ffffffffffffffffffffffffffffffffffffffff168152602001600073ffffffffffffffffffffffffffffffffffffffff16815260200160008152602001600081526020016000815260200160008152602001600081526020016000151581525090565b6040518060e00160405280600073ffffffffffffffffffffffffffffffffffffffff168152602001600073ffffffffffffffffffffffffffffffffffffffff168152602001600081526020016000815260200160008152602001600081526020016000151581525090565b6000819050919050565b6117c9816117b6565b82525050565b60006020820190506117e460008301846117c0565b92915050565b6000604051905090565b600080fd5b600080fd5b600073ffffffffffffffffffffffffffffffffffffffff82169050919050565b6000611829826117fe565b9050919050565b6118398161181e565b811461184457600080fd5b50565b60008135905061185681611830565b92915050565b611865816117b6565b811461187057600080fd5b50565b6000813590506118828161185c565b92915050565b600080fd5b600080fd5b6000601f19601f8301169050919050565b7f4e487b7100000000000000000000000000000000000000000000000000000000600052604160045260246000fd5b6118db82611892565b810181811067ffffffffffffffff821117156118fa576118f96118a3565b5b80604052505050565b600061190d6117ea565b905061191982826118d2565b919050565b600067ffffffffffffffff821115611939576119386118a3565b5b61194282611892565b9050602081019050919050565b82818337600083830152505050565b600061197161196c8461191e565b611903565b90508281526020810184848401111561198d5761198c61188d565b5b61199884828561194f565b509392505050565b600082601f8301126119b5576119b4611888565b5b81356119c584826020860161195e565b91505092915050565b600080600080608085870312156119e8576119e76117f4565b5b60006119f687828801611847565b9450506020611a0787828801611847565b9350506040611a1887828801611873565b925050606085013567ffffffffffffffff811115611a3957611a386117f9565b5b611a45878288016119a0565b91505092959194509250565b60007fffffffff0000000000000000000000000000000000000000000000000000000082169050919050565b611a8681611a51565b82525050565b6000602082019050611aa16000830184611a7d565b92915050565b600060208284031215611abd57611abc6117f4565b5b6000611acb84828501611847565b91505092915050565b600081519050919050565b600082825260208201905092915050565b6000819050602082019050919050565b611b098161181e565b82525050565b611b18816117b6565b82525050565b60008115159050919050565b611b3381611b1e565b82525050565b61012082016000820151611b506000850182611b00565b506020820151611b636020850182611b00565b506040820151611b766040850182611b00565b506060820151611b896060850182611b0f565b506080820151611b9c6080850182611b0f565b5060a0820151611baf60a0850182611b0f565b5060c0820151611bc260c0850182611b0f565b5060e0820151611bd560e0850182611b0f565b50610100820151611bea610100850182611b2a565b50505050565b6000611bfc8383611b39565b6101208301905092915050565b6000602082019050919050565b6000611c2182611ad4565b611c2b8185611adf565b9350611c3683611af0565b8060005b83811015611c67578151611c4e8882611bf0565b9750611c5983611c09565b925050600181019050611c3a565b5085935050505092915050565b60006020820190508181036000830152611c8e8184611c16565b905092915050565b600060208284031215611cac57611cab6117f4565b5b6000611cba84828501611873565b91505092915050565b600080600060608486031215611cdc57611cdb6117f4565b5b6000611cea86828701611847565b9350506020611cfb86828701611873565b9250506040611d0c86828701611873565b9150509250925092565b600081519050919050565b600082825260208201905092915050565b6000819050602082019050919050565b60e082016000820151611d586000850182611b00565b506020820151611d6b6020850182611b00565b506040820151611d7e6040850182611b0f565b506060820151611d916060850182611b0f565b506080820151611da46080850182611b0f565b5060a0820151611db760a0850182611b0f565b5060c0820151611dca60c0850182611b2a565b50505050565b6000611ddc8383611d42565b60e08301905092915050565b6000602082019050919050565b6000611e0082611d16565b611e0a8185611d21565b9350611e1583611d32565b8060005b83811015611e46578151611e2d8882611dd0565b9750611e3883611de8565b925050600181019050611e19565b5085935050505092915050565b60006020820190508181036000830152611e6d8184611df5565b905092915050565b600080600080600060a08688031215611e9157611e906117f4565b5b6000611e9f88828901611847565b9550506020611eb088828901611873565b9450506040611ec188828901611873565b9350506060611ed288828901611873565b9250506080611ee388828901611873565b9150509295509295909350565b60008060408385031215611f0757611f066117f4565b5b6000611f1585828601611847565b9250506020611f2685828601611873565b9150509250929050565b7f4e487b7100000000000000000000000000000000000000000000000000000000600052603260045260246000fd5b7f4e487b7100000000000000000000000000000000000000000000000000000000600052601160045260246000fd5b6000611f99826117b6565b9150611fa4836117b6565b9250827fffffffffffffffffffffffffffffffffffffffffffffffffffffffffffffffff03821115611fd957611fd8611f5f565b5b828201905092915050565b6000611fef826117b6565b91507fffffffffffffffffffffffffffffffffffffffffffffffffffffffffffffffff82141561202257612021611f5f565b5b600182019050919050565b600082825260208201905092915050565b7f4d65746172656e743a3a6e6f742061646d696e00000000000000000000000000600082015250565b600061207460138361202d565b915061207f8261203e565b602082019050919050565b600060208201905081810360008301526120a381612067565b9050919050565b7f4c656e64696e67206e6f74206176616c6961626c650000000000000000000000600082015250565b60006120e060158361202d565b91506120eb826120aa565b602082019050919050565b6000602082019050818103600083015261210f816120d3565b9050919050565b7f4c656e64696e67206e6f7420617661696c61626c650000000000000000000000600082015250565b600061214c60158361202d565b915061215782612116565b602082019050919050565b6000602082019050818103600083015261217b8161213f565b9050919050565b7f416c72656164792072656e746564000000000000000000000000000000000000600082015250565b60006121b8600e8361202d565b91506121c382612182565b602082019050919050565b600060208201905081810360008301526121e7816121ab565b9050919050565b6121f78161181e565b82525050565b600060608201905061221260008301866121ee565b61221f60208301856121ee565b61222c60408301846117c0565b949350505050565b7f416c7265616479206c656e646564000000000000000000000000000000000000600082015250565b600061226a600e8361202d565b915061227582612234565b602082019050919050565b600060208201905081810360008301526122998161225d565b9050919050565b7f546869732072656e74696e6720686173206265656e2072657475726e65642e00600082015250565b60006122d6601f8361202d565b91506122e1826122a0565b602082019050919050565b60006020820190508181036000830152612305816122c9565b9050919050565b7f52656e74696e67206e6f7420617661696c61626c650000000000000000000000600082015250565b600061234260158361202d565b915061234d8261230c565b602082019050919050565b6000602082019050818103600083015261237181612335565b9050919050565b6000612383826117b6565b915061238e836117b6565b9250817fffffffffffffffffffffffffffffffffffffffffffffffffffffffffffffffff04831182151516156123c7576123c6611f5f565b5b828202905092915050565b7f4e4f5420496d706c656d656e7400000000000000000000000000000000000000600082015250565b6000612408600d8361202d565b9150612413826123d2565b602082019050919050565b60006020820190508181036000830152612437816123fb565b905091905056fea2646970667358221220b114fc0df3aac66830d1d02b91cad02015c7948183929f8a0b5c3686759aa0f864736f6c634300080b0033",
  "immutableReferences": {},
  "source": "// SPDX-License-Identifier: MIT\npragma solidity ^0.8.11;\n\nimport \"@openzeppelin/contracts/token/ERC721/ERC721.sol\";\nimport \"@openzeppelin/contracts/token/ERC721/IERC721.sol\";\nimport \"@openzeppelin/contracts/token/ERC721/utils/ERC721Holder.sol\";\nimport \"@openzeppelin/contracts/access/Ownable.sol\";\nimport \"@openzeppelin/contracts/utils/structs/EnumerableMap.sol\";\nimport \"@openzeppelin/contracts/token/ERC721/extensions/ERC721Enumerable.sol\";\n\ncontract Metarent is ERC721Holder {\n    address private admin;\n    uint256 private feePermille; // fee in permille , like 25, 0.025\n\n    constructor(address _admin) {\n        admin = _admin;\n    }\n\n    /// Modifier: only allow admin\n    modifier onlyAdmin() {\n        require(msg.sender == admin, \"Metarent::not admin\");\n        _;\n    }\n\n    /// Lendable NFT info\n    struct Lending {\n        address lender;\n        address nftToken;\n        uint256 nftTokenId;\n        uint256 maxRentDuration;\n        uint256 dailyRentPrice;\n        uint256 nftPrice;\n        bool rentable;\n    }\n    Lending[] private lendings;\n    uint256 private userLendingsSize;\n\n    /// Rented NFT info\n    struct Renting {\n        address renter;\n        address lender;\n        address nftToken;\n        uint256 nftTokenId;\n        uint256 dailyRentPrice;\n        uint256 nftPrice;\n        uint256 rentDuration;\n        uint256 rentedAt;\n        bool isReturned;\n    }\n    Renting[] private rentings;\n    uint256 private userRentingsSize;\n\n    /// NFT Onwer mark the NFT as rentable\n    function setLending(\n        address nftToken,\n        uint256 nftTokenId,\n        uint256 maxRentDuration,\n        uint256 dailyRentPrice,\n        uint256 nftPrice\n    ) external payable {\n        // TODO: check NFT approve\n        // TODO: check msg.sender == NFT.owner\n\n        // Init lending info\n        Lending memory lending = Lending({\n            lender: msg.sender,\n            nftToken: nftToken,\n            nftTokenId: nftTokenId,\n            maxRentDuration: maxRentDuration,\n            dailyRentPrice: dailyRentPrice,\n            nftPrice: nftPrice,\n            rentable: true\n        });\n\n        // Add lending to user lending list\n        for (uint256 i = 0; i < lendings.length; i++) {\n            Lending storage _lend = lendings[i];\n            if (_lend.nftToken == nftToken && _lend.nftTokenId == nftTokenId) {\n                require(false, \"Already lended\");\n            }\n        }\n        userLendingsSize += 1;\n        lendings.push(lending);\n    }\n\n    /// Remove lending from user lending list\n    function removeLending(address nftToken, uint256 nftTokenId) public pure {\n        require(false, \"NOT Implement\");\n        nftToken;\n        nftTokenId;\n    }\n\n    /// Get user's rentable NFTs\n    function getLending()\n        public\n        view\n        returns (Lending[] memory filteredLendings)\n    {\n        Lending[] memory temp = new Lending[](userLendingsSize);\n        uint256 count;\n        for (uint256 i = 0; i < userLendingsSize; i++) {\n            if (lendings[i].rentable == true) {\n                temp[count] = lendings[i];\n                count += 1;\n            }\n        }\n        filteredLendings = new Lending[](count);\n        for (uint256 i = 0; i < count; i++) {\n            filteredLendings[i] = temp[i];\n        }\n        return filteredLendings;\n    }\n\n    /// Rent NFT\n    function rent(\n        address nftToken,\n        uint256 nftTokenId,\n        uint256 rentDuration\n    ) public payable {\n        // Find the lending\n        Lending memory _lending;\n        bool found = false;\n        for (uint256 i = 0; i < lendings.length; i++) {\n            Lending storage _lend = lendings[i];\n            if (_lend.nftToken == nftToken && _lend.nftTokenId == nftTokenId) {\n                _lending = _lend;\n                found = true;\n\n                // Check lending rentable and mark it as non-renable\n                require(_lend.rentable, \"Lending not avaliable\");\n                _lend.rentable = false;\n            }\n        }\n        require(found, \"Lending not available\");\n\n        // TODO Check eth value\n\n        Renting memory _rent = Renting({\n            renter: msg.sender,\n            lender: _lending.lender,\n            nftToken: nftToken,\n            nftTokenId: nftTokenId,\n            dailyRentPrice: _lending.dailyRentPrice,\n            nftPrice: _lending.nftPrice,\n            rentDuration: rentDuration,\n            rentedAt: block.timestamp,\n            isReturned: false\n        });\n        for (uint256 i = 0; i < rentings.length; i++) {\n            Renting memory _r = rentings[i];\n            if (_r.nftToken == nftToken && _r.nftTokenId == nftTokenId) {\n                require(false, \"Already rented\");\n            }\n        }\n\n        userRentingsSize += 1;\n        rentings.push(_rent);\n\n        // Transfer the NFT from lender to renter\n        IERC721 nftContract = IERC721(nftToken);\n        nftContract.transferFrom(_lending.lender, msg.sender, nftTokenId);\n    }\n\n    /// Get user's rented NFTs\n    function getRenting(address user)\n        public\n        view\n        returns (Renting[] memory filteredRentings)\n    {\n        Renting[] memory temp = new Renting[](userRentingsSize);\n        uint256 count;\n        for (uint256 i = 0; i < userRentingsSize; i++) {\n            if (rentings[i].renter == user) {\n                temp[count] = rentings[i];\n                count += 1;\n            }\n        }\n        filteredRentings = new Renting[](count);\n        for (uint256 i = 0; i < count; i++) {\n            filteredRentings[i] = temp[i];\n        }\n        return filteredRentings;\n    }\n\n    function returnRent(address nftToken, uint256 nftTokenId) public {\n        // TODO: check NFT approve\n        // TODO: check msg.sender == NFT.owner\n\n        // 0. Checking\n        Renting memory _renting;\n        bool found = false;\n        for (uint256 i = 0; i < rentings.length; i++) {\n            Renting storage _rent = rentings[i];\n            if (_rent.nftToken == nftToken && _rent.nftTokenId == nftTokenId) {\n                _renting = _rent;\n                found = true;\n                require(\n                    _rent.isReturned == false,\n                    \"This renting has been returned.\"\n                );\n                _rent.isReturned = true; // Mark it as un-rentable\n            }\n        }\n        require(found, \"Renting not available\");\n\n        // 1. Transfer the NFT from lender to renter\n        IERC721 nftContract = IERC721(nftToken);\n        nftContract.transferFrom(\n            msg.sender,\n            _renting.renter,\n            _renting.nftTokenId\n        );\n\n        // 2. Return the collateral to renter\n        payable(msg.sender).transfer(_renting.nftPrice);\n\n        // 3. Pay renting price to lender\n        payable(msg.sender).transfer(\n            _renting.dailyRentPrice * _renting.rentDuration\n        );\n    }\n\n    /// Change the feePermille\n    function setPermille(uint256 _feePermille) public onlyAdmin {\n        feePermille = _feePermille;\n    }\n\n    function getBalance() public view returns (uint256) {\n        return address(this).balance;\n    }\n}\n",
  "sourcePath": "/Users/shawn/code/el/MetaRent/contracts/contracts/Metarent.sol",
  "compiler": {
    "name": "solc",
    "version": "0.8.11+commit.d7f03943.Emscripten.clang"
  },
  "schemaVersion": "3.4.3",
  "updatedAt": "2021-12-30T15:47:04.711Z",
  "devdoc": {
    "kind": "dev",
    "methods": {
      "onERC721Received(address,address,uint256,bytes)": {
        "details": "See {IERC721Receiver-onERC721Received}. Always returns `IERC721Receiver.onERC721Received.selector`."
      }
    },
    "version": 1
  },
  "userdoc": {
    "kind": "user",
    "methods": {
      "getLending()": {
        "notice": "Get user's rentable NFTs"
      },
      "getRenting(address)": {
        "notice": "Get user's rented NFTs"
      },
      "removeLending(address,uint256)": {
        "notice": "Remove lending from user lending list"
      },
      "rent(address,uint256,uint256)": {
        "notice": "Rent NFT"
      },
      "setLending(address,uint256,uint256,uint256,uint256)": {
        "notice": "NFT Onwer mark the NFT as rentable"
      },
      "setPermille(uint256)": {
        "notice": "Change the feePermille"
      }
    },
    "version": 1
  }
}