{
  "contractName": "Metarent",
  "abi": [
    {
      "inputs": [
        {
          "internalType": "address",
          "name": "_admin",
          "type": "address"
        }
      ],
      "stateMutability": "nonpayable",
      "type": "constructor"
    },
    {
      "inputs": [
        {
          "internalType": "address",
          "name": "",
          "type": "address"
        },
        {
          "internalType": "address",
          "name": "",
          "type": "address"
        },
        {
          "internalType": "uint256",
          "name": "",
          "type": "uint256"
        },
        {
          "internalType": "bytes",
          "name": "",
          "type": "bytes"
        }
      ],
      "name": "onERC721Received",
      "outputs": [
        {
          "internalType": "bytes4",
          "name": "",
          "type": "bytes4"
        }
      ],
      "stateMutability": "nonpayable",
      "type": "function"
    },
    {
      "inputs": [
        {
          "internalType": "address",
          "name": "nftToken",
          "type": "address"
        },
        {
          "internalType": "uint256",
          "name": "nftTokenId",
          "type": "uint256"
        },
        {
          "internalType": "uint256",
          "name": "maxRentDuration",
          "type": "uint256"
        },
        {
          "internalType": "uint256",
          "name": "dailyRentPrice",
          "type": "uint256"
        },
        {
          "internalType": "uint256",
          "name": "nftPrice",
          "type": "uint256"
        }
      ],
      "name": "setLending",
      "outputs": [],
      "stateMutability": "payable",
      "type": "function",
      "payable": true
    },
    {
      "inputs": [
        {
          "internalType": "address",
          "name": "nftToken",
          "type": "address"
        },
        {
          "internalType": "uint256",
          "name": "nftTokenId",
          "type": "uint256"
        }
      ],
      "name": "removeLending",
      "outputs": [],
      "stateMutability": "pure",
      "type": "function",
      "constant": true
    },
    {
      "inputs": [],
      "name": "getLending",
      "outputs": [
        {
          "components": [
            {
              "internalType": "address",
              "name": "lender",
              "type": "address"
            },
            {
              "internalType": "address",
              "name": "nftToken",
              "type": "address"
            },
            {
              "internalType": "uint256",
              "name": "nftTokenId",
              "type": "uint256"
            },
            {
              "internalType": "uint256",
              "name": "maxRentDuration",
              "type": "uint256"
            },
            {
              "internalType": "uint256",
              "name": "dailyRentPrice",
              "type": "uint256"
            },
            {
              "internalType": "uint256",
              "name": "nftPrice",
              "type": "uint256"
            },
            {
              "internalType": "bool",
              "name": "rentable",
              "type": "bool"
            }
          ],
          "internalType": "struct Metarent.Lending[]",
          "name": "filteredLendings",
          "type": "tuple[]"
        }
      ],
      "stateMutability": "view",
      "type": "function",
      "constant": true
    },
    {
      "inputs": [
        {
          "internalType": "address",
          "name": "nftToken",
          "type": "address"
        },
        {
          "internalType": "uint256",
          "name": "nftTokenId",
          "type": "uint256"
        },
        {
          "internalType": "uint256",
          "name": "rentDuration",
          "type": "uint256"
        }
      ],
      "name": "rent",
      "outputs": [],
      "stateMutability": "payable",
      "type": "function",
      "payable": true
    },
    {
      "inputs": [
        {
          "internalType": "address",
          "name": "user",
          "type": "address"
        }
      ],
      "name": "getRenting",
      "outputs": [
        {
          "components": [
            {
              "internalType": "address",
              "name": "renter",
              "type": "address"
            },
            {
              "internalType": "address",
              "name": "nftToken",
              "type": "address"
            },
            {
              "internalType": "uint256",
              "name": "nftTokenId",
              "type": "uint256"
            },
            {
              "internalType": "uint256",
              "name": "dailyRentPrice",
              "type": "uint256"
            },
            {
              "internalType": "uint256",
              "name": "nftPrice",
              "type": "uint256"
            },
            {
              "internalType": "uint256",
              "name": "rentDuration",
              "type": "uint256"
            },
            {
              "internalType": "uint256",
              "name": "rentedAt",
              "type": "uint256"
            }
          ],
          "internalType": "struct Metarent.Renting[]",
          "name": "filteredRentings",
          "type": "tuple[]"
        }
      ],
      "stateMutability": "view",
      "type": "function",
      "constant": true
    },
    {
      "inputs": [
        {
          "internalType": "uint256",
          "name": "_feePermille",
          "type": "uint256"
        }
      ],
      "name": "setPermille",
      "outputs": [],
      "stateMutability": "nonpayable",
      "type": "function"
    },
    {
      "inputs": [],
      "name": "getBalance",
      "outputs": [
        {
          "internalType": "uint256",
          "name": "",
          "type": "uint256"
        }
      ],
      "stateMutability": "view",
      "type": "function",
      "constant": true
    }
  ],
  "bytecode": "0x60806040523480156200001157600080fd5b5060405162001d1338038062001d138339818101604052810190620000379190620000e8565b806000806101000a81548173ffffffffffffffffffffffffffffffffffffffff021916908373ffffffffffffffffffffffffffffffffffffffff160217905550506200011a565b600080fd5b600073ffffffffffffffffffffffffffffffffffffffff82169050919050565b6000620000b08262000083565b9050919050565b620000c281620000a3565b8114620000ce57600080fd5b50565b600081519050620000e281620000b7565b92915050565b6000602082840312156200010157620001006200007e565b5b60006200011184828501620000d1565b91505092915050565b611be9806200012a6000396000f3fe60806040526004361061007b5760003560e01c80634dc32a181161004e5780634dc32a181461014e57806369acea5f1461016a5780637cee00fa14610195578063e2d14f2b146101b15761007b565b806312065fe014610080578063150b7a02146100ab5780633567f456146100e857806338cacf2a14610125575b600080fd5b34801561008c57600080fd5b506100956101da565b6040516100a2919061111e565b60405180910390f35b3480156100b757600080fd5b506100d260048036038101906100cd919061131d565b6101e2565b6040516100df91906113db565b60405180910390f35b3480156100f457600080fd5b5061010f600480360381019061010a91906113f6565b6101f6565b60405161011c919061157e565b60405180910390f35b34801561013157600080fd5b5061014c600480360381019061014791906115a0565b6104df565b005b610168600480360381019061016391906115cd565b610577565b005b34801561017657600080fd5b5061017f610aae565b60405161018c9190611778565b60405180910390f35b6101af60048036038101906101aa919061179a565b610d6c565b005b3480156101bd57600080fd5b506101d860048036038101906101d39190611815565b610fec565b005b600047905090565b600063150b7a0260e01b9050949350505050565b6060600060055467ffffffffffffffff811115610216576102156111f2565b5b60405190808252806020026020018201604052801561024f57816020015b61023c611031565b8152602001906001900390816102345790505b509050600080600090505b600554811015610429578473ffffffffffffffffffffffffffffffffffffffff166004828154811061028f5761028e611855565b5b906000526020600020906007020160000160009054906101000a900473ffffffffffffffffffffffffffffffffffffffff1673ffffffffffffffffffffffffffffffffffffffff16141561041657600481815481106102f1576102f0611855565b5b90600052602060002090600702016040518060e00160405290816000820160009054906101000a900473ffffffffffffffffffffffffffffffffffffffff1673ffffffffffffffffffffffffffffffffffffffff1673ffffffffffffffffffffffffffffffffffffffff1681526020016001820160009054906101000a900473ffffffffffffffffffffffffffffffffffffffff1673ffffffffffffffffffffffffffffffffffffffff1673ffffffffffffffffffffffffffffffffffffffff168152602001600282015481526020016003820154815260200160048201548152602001600582015481526020016006820154815250508383815181106103fb576103fa611855565b5b602002602001018190525060018261041391906118b3565b91505b808061042190611909565b91505061025a565b508067ffffffffffffffff811115610444576104436111f2565b5b60405190808252806020026020018201604052801561047d57816020015b61046a611031565b8152602001906001900390816104625790505b50925060005b818110156104d75782818151811061049e5761049d611855565b5b60200260200101518482815181106104b9576104b8611855565b5b602002602001018190525080806104cf90611909565b915050610483565b505050919050565b60008054906101000a900473ffffffffffffffffffffffffffffffffffffffff1673ffffffffffffffffffffffffffffffffffffffff163373ffffffffffffffffffffffffffffffffffffffff161461056d576040517f08c379a0000000000000000000000000000000000000000000000000000000008152600401610564906119af565b60405180910390fd5b8060018190555050565b61057f61109a565b6000805b60028054905081101561072f576000600282815481106105a6576105a5611855565b5b906000526020600020906007020190508673ffffffffffffffffffffffffffffffffffffffff168160010160009054906101000a900473ffffffffffffffffffffffffffffffffffffffff1673ffffffffffffffffffffffffffffffffffffffff161480156106185750858160020154145b1561071b57806040518060e00160405290816000820160009054906101000a900473ffffffffffffffffffffffffffffffffffffffff1673ffffffffffffffffffffffffffffffffffffffff1673ffffffffffffffffffffffffffffffffffffffff1681526020016001820160009054906101000a900473ffffffffffffffffffffffffffffffffffffffff1673ffffffffffffffffffffffffffffffffffffffff1673ffffffffffffffffffffffffffffffffffffffff168152602001600282015481526020016003820154815260200160048201548152602001600582015481526020016006820160009054906101000a900460ff16151515158152505093505b50808061072790611909565b915050610583565b5080610770576040517f08c379a000000000000000000000000000000000000000000000000000000000815260040161076790611a1b565b60405180910390fd5b60006040518060e001604052803373ffffffffffffffffffffffffffffffffffffffff1681526020018773ffffffffffffffffffffffffffffffffffffffff168152602001868152602001846080015181526020018460a00151815260200185815260200142815250905060005b6004805490508110156109975760006004828154811061080157610800611855565b5b90600052602060002090600702016040518060e00160405290816000820160009054906101000a900473ffffffffffffffffffffffffffffffffffffffff1673ffffffffffffffffffffffffffffffffffffffff1673ffffffffffffffffffffffffffffffffffffffff1681526020016001820160009054906101000a900473ffffffffffffffffffffffffffffffffffffffff1673ffffffffffffffffffffffffffffffffffffffff1673ffffffffffffffffffffffffffffffffffffffff1681526020016002820154815260200160038201548152602001600482015481526020016005820154815260200160068201548152505090508773ffffffffffffffffffffffffffffffffffffffff16816020015173ffffffffffffffffffffffffffffffffffffffff1614801561093c5750868160400151145b15610983576000610982576040517f08c379a000000000000000000000000000000000000000000000000000000000815260040161097990611a87565b60405180910390fd5b5b50808061098f90611909565b9150506107de565b506001600560008282546109ab91906118b3565b9250508190555080600460016005546109c49190611aa7565b815481106109d5576109d4611855565b5b906000526020600020906007020160008201518160000160006101000a81548173ffffffffffffffffffffffffffffffffffffffff021916908373ffffffffffffffffffffffffffffffffffffffff16021790555060208201518160010160006101000a81548173ffffffffffffffffffffffffffffffffffffffff021916908373ffffffffffffffffffffffffffffffffffffffff16021790555060408201518160020155606082015181600301556080820151816004015560a0820151816005015560c08201518160060155905050505050505050565b6060600060035467ffffffffffffffff811115610ace57610acd6111f2565b5b604051908082528060200260200182016040528015610b0757816020015b610af461109a565b815260200190600190039081610aec5790505b509050600080600090505b600354811015610cb8576001151560028281548110610b3457610b33611855565b5b906000526020600020906007020160060160009054906101000a900460ff1615151415610ca55760028181548110610b6f57610b6e611855565b5b90600052602060002090600702016040518060e00160405290816000820160009054906101000a900473ffffffffffffffffffffffffffffffffffffffff1673ffffffffffffffffffffffffffffffffffffffff1673ffffffffffffffffffffffffffffffffffffffff1681526020016001820160009054906101000a900473ffffffffffffffffffffffffffffffffffffffff1673ffffffffffffffffffffffffffffffffffffffff1673ffffffffffffffffffffffffffffffffffffffff168152602001600282015481526020016003820154815260200160048201548152602001600582015481526020016006820160009054906101000a900460ff161515151581525050838381518110610c8a57610c89611855565b5b6020026020010181905250600182610ca291906118b3565b91505b8080610cb090611909565b915050610b12565b508067ffffffffffffffff811115610cd357610cd26111f2565b5b604051908082528060200260200182016040528015610d0c57816020015b610cf961109a565b815260200190600190039081610cf15790505b50925060005b81811015610d6657828181518110610d2d57610d2c611855565b5b6020026020010151848281518110610d4857610d47611855565b5b60200260200101819052508080610d5e90611909565b915050610d12565b50505090565b60006040518060e001604052803373ffffffffffffffffffffffffffffffffffffffff1681526020018773ffffffffffffffffffffffffffffffffffffffff16815260200186815260200185815260200184815260200183815260200160011515815250905060005b600280549050811015610ec557600060028281548110610df857610df7611855565b5b906000526020600020906007020190508773ffffffffffffffffffffffffffffffffffffffff168160010160009054906101000a900473ffffffffffffffffffffffffffffffffffffffff1673ffffffffffffffffffffffffffffffffffffffff16148015610e6a5750868160020154145b15610eb1576000610eb0576040517f08c379a0000000000000000000000000000000000000000000000000000000008152600401610ea790611b27565b60405180910390fd5b5b508080610ebd90611909565b915050610dd5565b50600160036000828254610ed991906118b3565b92505081905550600281908060018154018082558091505060019003906000526020600020906007020160009091909190915060008201518160000160006101000a81548173ffffffffffffffffffffffffffffffffffffffff021916908373ffffffffffffffffffffffffffffffffffffffff16021790555060208201518160010160006101000a81548173ffffffffffffffffffffffffffffffffffffffff021916908373ffffffffffffffffffffffffffffffffffffffff16021790555060408201518160020155606082015181600301556080820151816004015560a0820151816005015560c08201518160060160006101000a81548160ff0219169083151502179055505050505050505050565b600061102d576040517f08c379a000000000000000000000000000000000000000000000000000000000815260040161102490611b93565b60405180910390fd5b5050565b6040518060e00160405280600073ffffffffffffffffffffffffffffffffffffffff168152602001600073ffffffffffffffffffffffffffffffffffffffff16815260200160008152602001600081526020016000815260200160008152602001600081525090565b6040518060e00160405280600073ffffffffffffffffffffffffffffffffffffffff168152602001600073ffffffffffffffffffffffffffffffffffffffff168152602001600081526020016000815260200160008152602001600081526020016000151581525090565b6000819050919050565b61111881611105565b82525050565b6000602082019050611133600083018461110f565b92915050565b6000604051905090565b600080fd5b600080fd5b600073ffffffffffffffffffffffffffffffffffffffff82169050919050565b60006111788261114d565b9050919050565b6111888161116d565b811461119357600080fd5b50565b6000813590506111a58161117f565b92915050565b6111b481611105565b81146111bf57600080fd5b50565b6000813590506111d1816111ab565b92915050565b600080fd5b600080fd5b6000601f19601f8301169050919050565b7f4e487b7100000000000000000000000000000000000000000000000000000000600052604160045260246000fd5b61122a826111e1565b810181811067ffffffffffffffff82111715611249576112486111f2565b5b80604052505050565b600061125c611139565b90506112688282611221565b919050565b600067ffffffffffffffff821115611288576112876111f2565b5b611291826111e1565b9050602081019050919050565b82818337600083830152505050565b60006112c06112bb8461126d565b611252565b9050828152602081018484840111156112dc576112db6111dc565b5b6112e784828561129e565b509392505050565b600082601f830112611304576113036111d7565b5b81356113148482602086016112ad565b91505092915050565b6000806000806080858703121561133757611336611143565b5b600061134587828801611196565b945050602061135687828801611196565b9350506040611367878288016111c2565b925050606085013567ffffffffffffffff81111561138857611387611148565b5b611394878288016112ef565b91505092959194509250565b60007fffffffff0000000000000000000000000000000000000000000000000000000082169050919050565b6113d5816113a0565b82525050565b60006020820190506113f060008301846113cc565b92915050565b60006020828403121561140c5761140b611143565b5b600061141a84828501611196565b91505092915050565b600081519050919050565b600082825260208201905092915050565b6000819050602082019050919050565b6114588161116d565b82525050565b61146781611105565b82525050565b60e082016000820151611483600085018261144f565b506020820151611496602085018261144f565b5060408201516114a9604085018261145e565b5060608201516114bc606085018261145e565b5060808201516114cf608085018261145e565b5060a08201516114e260a085018261145e565b5060c08201516114f560c085018261145e565b50505050565b6000611507838361146d565b60e08301905092915050565b6000602082019050919050565b600061152b82611423565b611535818561142e565b93506115408361143f565b8060005b8381101561157157815161155888826114fb565b975061156383611513565b925050600181019050611544565b5085935050505092915050565b600060208201905081810360008301526115988184611520565b905092915050565b6000602082840312156115b6576115b5611143565b5b60006115c4848285016111c2565b91505092915050565b6000806000606084860312156115e6576115e5611143565b5b60006115f486828701611196565b9350506020611605868287016111c2565b9250506040611616868287016111c2565b9150509250925092565b600081519050919050565b600082825260208201905092915050565b6000819050602082019050919050565b60008115159050919050565b6116618161164c565b82525050565b60e08201600082015161167d600085018261144f565b506020820151611690602085018261144f565b5060408201516116a3604085018261145e565b5060608201516116b6606085018261145e565b5060808201516116c9608085018261145e565b5060a08201516116dc60a085018261145e565b5060c08201516116ef60c0850182611658565b50505050565b60006117018383611667565b60e08301905092915050565b6000602082019050919050565b600061172582611620565b61172f818561162b565b935061173a8361163c565b8060005b8381101561176b57815161175288826116f5565b975061175d8361170d565b92505060018101905061173e565b5085935050505092915050565b60006020820190508181036000830152611792818461171a565b905092915050565b600080600080600060a086880312156117b6576117b5611143565b5b60006117c488828901611196565b95505060206117d5888289016111c2565b94505060406117e6888289016111c2565b93505060606117f7888289016111c2565b9250506080611808888289016111c2565b9150509295509295909350565b6000806040838503121561182c5761182b611143565b5b600061183a85828601611196565b925050602061184b858286016111c2565b9150509250929050565b7f4e487b7100000000000000000000000000000000000000000000000000000000600052603260045260246000fd5b7f4e487b7100000000000000000000000000000000000000000000000000000000600052601160045260246000fd5b60006118be82611105565b91506118c983611105565b9250827fffffffffffffffffffffffffffffffffffffffffffffffffffffffffffffffff038211156118fe576118fd611884565b5b828201905092915050565b600061191482611105565b91507fffffffffffffffffffffffffffffffffffffffffffffffffffffffffffffffff82141561194757611946611884565b5b600182019050919050565b600082825260208201905092915050565b7f4d65746172656e743a3a6e6f742061646d696e00000000000000000000000000600082015250565b6000611999601383611952565b91506119a482611963565b602082019050919050565b600060208201905081810360008301526119c88161198c565b9050919050565b7f4c656e64696e67206e6f7420617661696c61626c650000000000000000000000600082015250565b6000611a05601583611952565b9150611a10826119cf565b602082019050919050565b60006020820190508181036000830152611a34816119f8565b9050919050565b7f416c72656164792072656e746564000000000000000000000000000000000000600082015250565b6000611a71600e83611952565b9150611a7c82611a3b565b602082019050919050565b60006020820190508181036000830152611aa081611a64565b9050919050565b6000611ab282611105565b9150611abd83611105565b925082821015611ad057611acf611884565b5b828203905092915050565b7f416c7265616479206c656e646564000000000000000000000000000000000000600082015250565b6000611b11600e83611952565b9150611b1c82611adb565b602082019050919050565b60006020820190508181036000830152611b4081611b04565b9050919050565b7f4e4f5420496d706c656d656e7400000000000000000000000000000000000000600082015250565b6000611b7d600d83611952565b9150611b8882611b47565b602082019050919050565b60006020820190508181036000830152611bac81611b70565b905091905056fea26469706673582212200d6de1509cfdb33063c7338b949061fffd6c2e4fbb1464f0e02fb778be497eab64736f6c634300080b0033",
  "immutableReferences": {},
  "source": "// SPDX-License-Identifier: MIT\npragma solidity ^0.8.11;\n\nimport \"@openzeppelin/contracts/token/ERC721/ERC721.sol\";\nimport \"@openzeppelin/contracts/token/ERC721/utils/ERC721Holder.sol\";\nimport \"@openzeppelin/contracts/access/Ownable.sol\";\nimport \"@openzeppelin/contracts/utils/structs/EnumerableMap.sol\";\nimport \"@openzeppelin/contracts/token/ERC721/extensions/ERC721Enumerable.sol\";\n\ncontract Metarent is ERC721Holder {\n    address private admin;\n    uint256 private feePermille; // fee in permille , like 25, 0.025\n\n    constructor(address _admin) {\n        admin = _admin;\n    }\n\n    /// Modifier: only allow admin\n    modifier onlyAdmin() {\n        require(msg.sender == admin, \"Metarent::not admin\");\n        _;\n    }\n\n    /// Lendable NFT info\n    struct Lending {\n        address lender;\n        address nftToken;\n        uint256 nftTokenId;\n        uint256 maxRentDuration;\n        uint256 dailyRentPrice;\n        uint256 nftPrice;\n        bool rentable;\n    }\n    Lending[] private lendings;\n    uint256 private userLendingsSize;\n\n    /// Rented NFT info\n    struct Renting {\n        address renter;\n        address nftToken;\n        uint256 nftTokenId;\n        uint256 dailyRentPrice;\n        uint256 nftPrice;\n        uint256 rentDuration;\n        uint256 rentedAt;\n    }\n    Renting[] private rentings;\n    uint256 private userRentingsSize;\n\n    /// NFT Onwer mark the NFT as rentable\n    function setLending(\n        address nftToken,\n        uint256 nftTokenId,\n        uint256 maxRentDuration,\n        uint256 dailyRentPrice,\n        uint256 nftPrice\n    ) external payable {\n        // Send eth amount\n        // TODO\n\n        // Init lending info\n        Lending memory lending = Lending({\n            lender: msg.sender,\n            nftToken: nftToken,\n            nftTokenId: nftTokenId,\n            maxRentDuration: maxRentDuration,\n            dailyRentPrice: dailyRentPrice,\n            nftPrice: nftPrice,\n            rentable: true\n        });\n\n        // Add lending to user lending list\n        for (uint256 i = 0; i < lendings.length; i++) {\n            Lending storage _lend = lendings[i];\n            if (_lend.nftToken == nftToken && _lend.nftTokenId == nftTokenId) {\n                require(false, \"Already lended\");\n            }\n        }\n        userLendingsSize += 1;\n        lendings.push(lending);\n        // lendings[userLendingsSize - 1] = lending;\n    }\n\n    /// Remove lending from user lending list\n    function removeLending(address nftToken, uint256 nftTokenId) public pure {\n        require(false, \"NOT Implement\");\n        nftToken;\n        nftTokenId;\n    }\n\n    /// Get user's rentable NFTs\n    function getLending()\n        public\n        view\n        returns (Lending[] memory filteredLendings)\n    {\n        Lending[] memory temp = new Lending[](userLendingsSize);\n        uint256 count;\n        for (uint256 i = 0; i < userLendingsSize; i++) {\n            if (lendings[i].rentable == true) {\n                temp[count] = lendings[i];\n                count += 1;\n            }\n        }\n        filteredLendings = new Lending[](count);\n        for (uint256 i = 0; i < count; i++) {\n            filteredLendings[i] = temp[i];\n        }\n        return filteredLendings;\n    }\n\n    /// Rent NFT\n    function rent(\n        address nftToken,\n        uint256 nftTokenId,\n        uint256 rentDuration\n    ) public payable {\n        // Find the lending\n        Lending memory _lending;\n        bool found = false;\n        for (uint256 i = 0; i < lendings.length; i++) {\n            Lending storage _lend = lendings[i];\n            if (_lend.nftToken == nftToken && _lend.nftTokenId == nftTokenId) {\n                _lending = _lend;\n            }\n        }\n        require(found, \"Lending not available\");\n\n        // TODO Check value\n\n        Renting memory _rent = Renting({\n            renter: msg.sender,\n            nftToken: nftToken,\n            nftTokenId: nftTokenId,\n            dailyRentPrice: _lending.dailyRentPrice,\n            nftPrice: _lending.nftPrice,\n            rentDuration: rentDuration,\n            rentedAt: block.timestamp\n        });\n        for (uint256 i = 0; i < rentings.length; i++) {\n            Renting memory _r = rentings[i];\n            if (_r.nftToken == nftToken && _r.nftTokenId == nftTokenId) {\n                require(false, \"Already rented\");\n            }\n        }\n\n        userRentingsSize += 1;\n        rentings[userRentingsSize - 1] = _rent;\n    }\n\n    /// Get user's rented NFTs\n    function getRenting(address user)\n        public\n        view\n        returns (Renting[] memory filteredRentings)\n    {\n        Renting[] memory temp = new Renting[](userRentingsSize);\n        uint256 count;\n        for (uint256 i = 0; i < userRentingsSize; i++) {\n            if (rentings[i].renter == user) {\n                temp[count] = rentings[i];\n                count += 1;\n            }\n        }\n        filteredRentings = new Renting[](count);\n        for (uint256 i = 0; i < count; i++) {\n            filteredRentings[i] = temp[i];\n        }\n        return filteredRentings;\n    }\n\n    /// Change the feePermille\n    function setPermille(uint256 _feePermille) public onlyAdmin {\n        feePermille = _feePermille;\n    }\n\n    function getBalance() public view returns (uint256) {\n        return address(this).balance;\n    }\n}\n",
  "sourcePath": "/home/ubuntu/tian/contracts/contracts/Metarent.sol",
  "compiler": {
    "name": "solc",
    "version": "0.8.11+commit.d7f03943.Emscripten.clang"
  },
  "schemaVersion": "3.4.1",
  "updatedAt": "2021-12-28T22:14:30.970Z",
  "networkType": "ethereum",
  "devdoc": {
    "kind": "dev",
    "methods": {
      "onERC721Received(address,address,uint256,bytes)": {
        "details": "See {IERC721Receiver-onERC721Received}. Always returns `IERC721Receiver.onERC721Received.selector`."
      }
    },
    "version": 1
  },
  "userdoc": {
    "kind": "user",
    "methods": {
      "getLending()": {
        "notice": "Get user's rentable NFTs"
      },
      "getRenting(address)": {
        "notice": "Get user's rented NFTs"
      },
      "removeLending(address,uint256)": {
        "notice": "Remove lending from user lending list"
      },
      "rent(address,uint256,uint256)": {
        "notice": "Rent NFT"
      },
      "setLending(address,uint256,uint256,uint256,uint256)": {
        "notice": "NFT Onwer mark the NFT as rentable"
      },
      "setPermille(uint256)": {
        "notice": "Change the feePermille"
      }
    },
    "version": 1
  }
}